{
  "_format": "hh-sol-artifact-1",
  "contractName": "MyEpicNFT",
  "sourceName": "contracts/MyEpicNFT.sol",
  "abi": [
    {
      "inputs": [],
      "stateMutability": "nonpayable",
      "type": "constructor"
    },
    {
      "anonymous": false,
      "inputs": [
        {
          "indexed": true,
          "internalType": "address",
          "name": "owner",
          "type": "address"
        },
        {
          "indexed": true,
          "internalType": "address",
          "name": "approved",
          "type": "address"
        },
        {
          "indexed": true,
          "internalType": "uint256",
          "name": "tokenId",
          "type": "uint256"
        }
      ],
      "name": "Approval",
      "type": "event"
    },
    {
      "anonymous": false,
      "inputs": [
        {
          "indexed": true,
          "internalType": "address",
          "name": "owner",
          "type": "address"
        },
        {
          "indexed": true,
          "internalType": "address",
          "name": "operator",
          "type": "address"
        },
        {
          "indexed": false,
          "internalType": "bool",
          "name": "approved",
          "type": "bool"
        }
      ],
      "name": "ApprovalForAll",
      "type": "event"
    },
    {
      "anonymous": false,
      "inputs": [
        {
          "indexed": false,
          "internalType": "address",
          "name": "sender",
          "type": "address"
        },
        {
          "indexed": false,
          "internalType": "uint256",
          "name": "tokenId",
          "type": "uint256"
        }
      ],
      "name": "NewEpicNFTMinted",
      "type": "event"
    },
    {
      "anonymous": false,
      "inputs": [
        {
          "indexed": true,
          "internalType": "address",
          "name": "from",
          "type": "address"
        },
        {
          "indexed": true,
          "internalType": "address",
          "name": "to",
          "type": "address"
        },
        {
          "indexed": true,
          "internalType": "uint256",
          "name": "tokenId",
          "type": "uint256"
        }
      ],
      "name": "Transfer",
      "type": "event"
    },
    {
      "inputs": [
        {
          "internalType": "address",
          "name": "to",
          "type": "address"
        },
        {
          "internalType": "uint256",
          "name": "tokenId",
          "type": "uint256"
        }
      ],
      "name": "approve",
      "outputs": [],
      "stateMutability": "nonpayable",
      "type": "function"
    },
    {
      "inputs": [
        {
          "internalType": "address",
          "name": "owner",
          "type": "address"
        }
      ],
      "name": "balanceOf",
      "outputs": [
        {
          "internalType": "uint256",
          "name": "",
          "type": "uint256"
        }
      ],
      "stateMutability": "view",
      "type": "function"
    },
    {
      "inputs": [
        {
          "internalType": "uint256",
          "name": "tokenId",
          "type": "uint256"
        }
      ],
      "name": "getApproved",
      "outputs": [
        {
          "internalType": "address",
          "name": "",
          "type": "address"
        }
      ],
      "stateMutability": "view",
      "type": "function"
    },
    {
      "inputs": [
        {
          "internalType": "address",
          "name": "owner",
          "type": "address"
        },
        {
          "internalType": "address",
          "name": "operator",
          "type": "address"
        }
      ],
      "name": "isApprovedForAll",
      "outputs": [
        {
          "internalType": "bool",
          "name": "",
          "type": "bool"
        }
      ],
      "stateMutability": "view",
      "type": "function"
    },
    {
      "inputs": [],
      "name": "makeAnEpicNFT",
      "outputs": [],
      "stateMutability": "nonpayable",
      "type": "function"
    },
    {
      "inputs": [],
      "name": "name",
      "outputs": [
        {
          "internalType": "string",
          "name": "",
          "type": "string"
        }
      ],
      "stateMutability": "view",
      "type": "function"
    },
    {
      "inputs": [
        {
          "internalType": "uint256",
          "name": "tokenId",
          "type": "uint256"
        }
      ],
      "name": "ownerOf",
      "outputs": [
        {
          "internalType": "address",
          "name": "",
          "type": "address"
        }
      ],
      "stateMutability": "view",
      "type": "function"
    },
    {
      "inputs": [
        {
          "internalType": "uint256",
          "name": "tokenId",
          "type": "uint256"
        }
      ],
      "name": "pickRandomColor",
      "outputs": [
        {
          "internalType": "string",
          "name": "",
          "type": "string"
        }
      ],
      "stateMutability": "view",
      "type": "function"
    },
    {
      "inputs": [
        {
          "internalType": "uint256",
          "name": "tokenId",
          "type": "uint256"
        }
      ],
      "name": "pickRandomFirstWord",
      "outputs": [
        {
          "internalType": "string",
          "name": "",
          "type": "string"
        }
      ],
      "stateMutability": "view",
      "type": "function"
    },
    {
      "inputs": [
        {
          "internalType": "uint256",
          "name": "tokenId",
          "type": "uint256"
        }
      ],
      "name": "pickRandomSecondWord",
      "outputs": [
        {
          "internalType": "string",
          "name": "",
          "type": "string"
        }
      ],
      "stateMutability": "view",
      "type": "function"
    },
    {
      "inputs": [
        {
          "internalType": "uint256",
          "name": "tokenId",
          "type": "uint256"
        }
      ],
      "name": "pickRandomThirdWord",
      "outputs": [
        {
          "internalType": "string",
          "name": "",
          "type": "string"
        }
      ],
      "stateMutability": "view",
      "type": "function"
    },
    {
      "inputs": [
        {
          "internalType": "address",
          "name": "from",
          "type": "address"
        },
        {
          "internalType": "address",
          "name": "to",
          "type": "address"
        },
        {
          "internalType": "uint256",
          "name": "tokenId",
          "type": "uint256"
        }
      ],
      "name": "safeTransferFrom",
      "outputs": [],
      "stateMutability": "nonpayable",
      "type": "function"
    },
    {
      "inputs": [
        {
          "internalType": "address",
          "name": "from",
          "type": "address"
        },
        {
          "internalType": "address",
          "name": "to",
          "type": "address"
        },
        {
          "internalType": "uint256",
          "name": "tokenId",
          "type": "uint256"
        },
        {
          "internalType": "bytes",
          "name": "data",
          "type": "bytes"
        }
      ],
      "name": "safeTransferFrom",
      "outputs": [],
      "stateMutability": "nonpayable",
      "type": "function"
    },
    {
      "inputs": [
        {
          "internalType": "address",
          "name": "operator",
          "type": "address"
        },
        {
          "internalType": "bool",
          "name": "approved",
          "type": "bool"
        }
      ],
      "name": "setApprovalForAll",
      "outputs": [],
      "stateMutability": "nonpayable",
      "type": "function"
    },
    {
      "inputs": [
        {
          "internalType": "bytes4",
          "name": "interfaceId",
          "type": "bytes4"
        }
      ],
      "name": "supportsInterface",
      "outputs": [
        {
          "internalType": "bool",
          "name": "",
          "type": "bool"
        }
      ],
      "stateMutability": "view",
      "type": "function"
    },
    {
      "inputs": [],
      "name": "symbol",
      "outputs": [
        {
          "internalType": "string",
          "name": "",
          "type": "string"
        }
      ],
      "stateMutability": "view",
      "type": "function"
    },
    {
      "inputs": [
        {
          "internalType": "uint256",
          "name": "tokenId",
          "type": "uint256"
        }
      ],
      "name": "tokenURI",
      "outputs": [
        {
          "internalType": "string",
          "name": "",
          "type": "string"
        }
      ],
      "stateMutability": "view",
      "type": "function"
    },
    {
      "inputs": [
        {
          "internalType": "address",
          "name": "from",
          "type": "address"
        },
        {
          "internalType": "address",
          "name": "to",
          "type": "address"
        },
        {
          "internalType": "uint256",
          "name": "tokenId",
          "type": "uint256"
        }
      ],
      "name": "transferFrom",
      "outputs": [],
      "stateMutability": "nonpayable",
      "type": "function"
    }
  ],
  "bytecode": "0x608060405260405180610100016040528060d38152602001620047fb60d39139600890816200002f919062000eac565b50604051806080016040528060568152602001620048ce60569139600990816200005a919062000eac565b5060405180608001604052806040518060400160405280600481526020017f53616d750000000000000000000000000000000000000000000000000000000081525081526020016040518060400160405280600481526020017f416c62690000000000000000000000000000000000000000000000000000000081525081526020016040518060400160405280600681526020017f54686f6d6173000000000000000000000000000000000000000000000000000081525081526020016040518060400160405280600281526020017f5875000000000000000000000000000000000000000000000000000000000000815250815250600a9060046200016292919062000a25565b506040518061018001604052806040518060400160405280600581526020017f477569646100000000000000000000000000000000000000000000000000000081525081526020016040518060400160405280600681526020017f54726f6d6261000000000000000000000000000000000000000000000000000081525081526020016040518060400160405280600781526020017f436176616c63610000000000000000000000000000000000000000000000000081525081526020016040518060400160405280600581526020017f436572636100000000000000000000000000000000000000000000000000000081525081526020016040518060400160405280600581526020017f56756f6c6500000000000000000000000000000000000000000000000000000081525081526020016040518060400160405280600581526020017f536f676e6100000000000000000000000000000000000000000000000000000081525081526020016040518060400160405280600781526020017f496e73656775650000000000000000000000000000000000000000000000000081525081526020016040518060400160405280600881526020017f52696e636f72726500000000000000000000000000000000000000000000000081525081526020016040518060400160405280600781526020017f4d6f6c657374610000000000000000000000000000000000000000000000000081525081526020016040518060400160405280600981526020017f50616c706567676961000000000000000000000000000000000000000000000081525081526020016040518060400160405280600681526020017f4d616e676961000000000000000000000000000000000000000000000000000081525081526020016040518060400160405280600381526020017f416d610000000000000000000000000000000000000000000000000000000000815250815250600b90600c6200044392919062000a85565b506040518061016001604052806040518060400160405280600581526020017f50697a7a6100000000000000000000000000000000000000000000000000000081525081526020016040518060400160405280600581526020017f537573686900000000000000000000000000000000000000000000000000000081525081526020016040518060400160405280600281526020017f4d3400000000000000000000000000000000000000000000000000000000000081525081526020016040518060400160405280600481526020017f4d6f746f0000000000000000000000000000000000000000000000000000000081525081526020016040518060400160405280600481526020017f506f6e790000000000000000000000000000000000000000000000000000000081525081526020016040518060400160405280600581526020017f42656e6e7900000000000000000000000000000000000000000000000000000081525081526020016040518060400160405280600881526020017f466961745469706f00000000000000000000000000000000000000000000000081525081526020016040518060400160405280600881526020017f5376697a7a65726100000000000000000000000000000000000000000000000081525081526020016040518060400160405280600781526020017f4d6344726976650000000000000000000000000000000000000000000000000081525081526020016040518060400160405280600481526020017f43696e610000000000000000000000000000000000000000000000000000000081525081526020016040518060400160405280600681526020017f43727970746f0000000000000000000000000000000000000000000000000000815250815250600c90600b620006e992919062000ae5565b506040518060c001604052806040518060400160405280600381526020017f726564000000000000000000000000000000000000000000000000000000000081525081526020016040518060400160405280600781526020017f233038433241380000000000000000000000000000000000000000000000000081525081526020016040518060400160405280600581526020017f626c61636b00000000000000000000000000000000000000000000000000000081525081526020016040518060400160405280600681526020017f79656c6c6f77000000000000000000000000000000000000000000000000000081525081526020016040518060400160405280600481526020017f626c75650000000000000000000000000000000000000000000000000000000081525081526020016040518060400160405280600581526020017f677265656e000000000000000000000000000000000000000000000000000000815250815250600d9060066200086792919062000b45565b503480156200087557600080fd5b506040518060400160405280601081526020017f43727970746f646970656e64656e7469000000000000000000000000000000008152506040518060400160405280600481526020017f4c554e41000000000000000000000000000000000000000000000000000000008152508160009081620008f3919062000eac565b50806001908162000905919062000eac565b505050620009536040518060400160405280601e81526020017f54686973206973206d79204e465420636f6e74726163742e20576f61682100008152506200095960201b620010681760201c565b62001046565b620009f98160405160240162000970919062001022565b6040516020818303038152906040527f41304fac000000000000000000000000000000000000000000000000000000007bffffffffffffffffffffffffffffffffffffffffffffffffffffffff19166020820180517bffffffffffffffffffffffffffffffffffffffffffffffffffffffff8381831617835250505050620009fc60201b60201c565b50565b60008151905060006a636f6e736f6c652e6c6f679050602083016000808483855afa5050505050565b82805482825590600052602060002090810192821562000a72579160200282015b8281111562000a7157825182908162000a60919062000eac565b509160200191906001019062000a46565b5b50905062000a81919062000ba5565b5090565b82805482825590600052602060002090810192821562000ad2579160200282015b8281111562000ad157825182908162000ac0919062000eac565b509160200191906001019062000aa6565b5b50905062000ae1919062000ba5565b5090565b82805482825590600052602060002090810192821562000b32579160200282015b8281111562000b3157825182908162000b20919062000eac565b509160200191906001019062000b06565b5b50905062000b41919062000ba5565b5090565b82805482825590600052602060002090810192821562000b92579160200282015b8281111562000b9157825182908162000b80919062000eac565b509160200191906001019062000b66565b5b50905062000ba1919062000ba5565b5090565b5b8082111562000bc9576000818162000bbf919062000bcd565b5060010162000ba6565b5090565b50805462000bdb9062000c9b565b6000825580601f1062000bef575062000c10565b601f01602090049060005260206000209081019062000c0f919062000c13565b5b50565b5b8082111562000c2e57600081600090555060010162000c14565b5090565b600081519050919050565b7f4e487b7100000000000000000000000000000000000000000000000000000000600052604160045260246000fd5b7f4e487b7100000000000000000000000000000000000000000000000000000000600052602260045260246000fd5b6000600282049050600182168062000cb457607f821691505b60208210810362000cca5762000cc962000c6c565b5b50919050565b60008190508160005260206000209050919050565b60006020601f8301049050919050565b600082821b905092915050565b60006008830262000d347fffffffffffffffffffffffffffffffffffffffffffffffffffffffffffffffff8262000cf5565b62000d40868362000cf5565b95508019841693508086168417925050509392505050565b6000819050919050565b6000819050919050565b600062000d8d62000d8762000d818462000d58565b62000d62565b62000d58565b9050919050565b6000819050919050565b62000da98362000d6c565b62000dc162000db88262000d94565b84845462000d02565b825550505050565b600090565b62000dd862000dc9565b62000de581848462000d9e565b505050565b5b8181101562000e0d5762000e0160008262000dce565b60018101905062000deb565b5050565b601f82111562000e5c5762000e268162000cd0565b62000e318462000ce5565b8101602085101562000e41578190505b62000e5962000e508562000ce5565b83018262000dea565b50505b505050565b600082821c905092915050565b600062000e816000198460080262000e61565b1980831691505092915050565b600062000e9c838362000e6e565b9150826002028217905092915050565b62000eb78262000c32565b67ffffffffffffffff81111562000ed35762000ed262000c3d565b5b62000edf825462000c9b565b62000eec82828562000e11565b600060209050601f83116001811462000f24576000841562000f0f578287015190505b62000f1b858262000e8e565b86555062000f8b565b601f19841662000f348662000cd0565b60005b8281101562000f5e5784890151825560018201915060208501945060208101905062000f37565b8683101562000f7e578489015162000f7a601f89168262000e6e565b8355505b6001600288020188555050505b505050505050565b600082825260208201905092915050565b60005b8381101562000fc457808201518184015260208101905062000fa7565b60008484015250505050565b6000601f19601f8301169050919050565b600062000fee8262000c32565b62000ffa818562000f93565b93506200100c81856020860162000fa4565b620010178162000fd0565b840191505092915050565b600060208201905081810360008301526200103e818462000fe1565b905092915050565b6137a580620010566000396000f3fe608060405234801561001057600080fd5b50600436106101165760003560e01c806370a08231116100a2578063b88d4fde11610071578063b88d4fde14610317578063c575757a14610333578063c87b56dd14610363578063de9d132f14610393578063e985e9c51461039d57610116565b806370a082311461027d57806395d89b41146102ad578063a22cb465146102cb578063b187301f146102e757610116565b806323b872dd116100e957806323b872dd146101b55780632de38d68146101d157806342842e0e14610201578063514dc8c61461021d5780636352211e1461024d57610116565b806301ffc9a71461011b57806306fdde031461014b578063081812fc14610169578063095ea7b314610199575b600080fd5b6101356004803603810190610130919061207b565b6103cd565b60405161014291906120c3565b60405180910390f35b6101536104af565b604051610160919061216e565b60405180910390f35b610183600480360381019061017e91906121c6565b610541565b6040516101909190612234565b60405180910390f35b6101b360048036038101906101ae919061227b565b610587565b005b6101cf60048036038101906101ca91906122bb565b61069e565b005b6101eb60048036038101906101e691906121c6565b6106fe565b6040516101f8919061216e565b60405180910390f35b61021b600480360381019061021691906122bb565b6107f6565b005b610237600480360381019061023291906121c6565b610816565b604051610244919061216e565b60405180910390f35b610267600480360381019061026291906121c6565b61090e565b6040516102749190612234565b60405180910390f35b6102976004803603810190610292919061230e565b6109bf565b6040516102a4919061234a565b60405180910390f35b6102b5610a76565b6040516102c2919061216e565b60405180910390f35b6102e560048036038101906102e09190612391565b610b08565b005b61030160048036038101906102fc91906121c6565b610b1e565b60405161030e919061216e565b60405180910390f35b610331600480360381019061032c9190612506565b610c16565b005b61034d600480360381019061034891906121c6565b610c78565b60405161035a919061216e565b60405180910390f35b61037d600480360381019061037891906121c6565b610d70565b60405161038a919061216e565b60405180910390f35b61039b610e82565b005b6103b760048036038101906103b29190612589565b610fd4565b6040516103c491906120c3565b60405180910390f35b60007f80ac58cd000000000000000000000000000000000000000000000000000000007bffffffffffffffffffffffffffffffffffffffffffffffffffffffff1916827bffffffffffffffffffffffffffffffffffffffffffffffffffffffff1916148061049857507f5b5e139f000000000000000000000000000000000000000000000000000000007bffffffffffffffffffffffffffffffffffffffffffffffffffffffff1916827bffffffffffffffffffffffffffffffffffffffffffffffffffffffff1916145b806104a857506104a782611101565b5b9050919050565b6060600080546104be906125f8565b80601f01602080910402602001604051908101604052809291908181526020018280546104ea906125f8565b80156105375780601f1061050c57610100808354040283529160200191610537565b820191906000526020600020905b81548152906001019060200180831161051a57829003601f168201915b5050505050905090565b600061054c8261116b565b6004600083815260200190815260200160002060009054906101000a900473ffffffffffffffffffffffffffffffffffffffff169050919050565b60006105928261090e565b90508073ffffffffffffffffffffffffffffffffffffffff168373ffffffffffffffffffffffffffffffffffffffff1603610602576040517f08c379a00000000000000000000000000000000000000000000000000000000081526004016105f99061269b565b60405180910390fd5b8073ffffffffffffffffffffffffffffffffffffffff166106216111b6565b73ffffffffffffffffffffffffffffffffffffffff161480610650575061064f8161064a6111b6565b610fd4565b5b61068f576040517f08c379a00000000000000000000000000000000000000000000000000000000081526004016106869061272d565b60405180910390fd5b61069983836111be565b505050565b6106af6106a96111b6565b82611277565b6106ee576040517f08c379a00000000000000000000000000000000000000000000000000000000081526004016106e5906127bf565b60405180910390fd5b6106f983838361130c565b505050565b6060600061073261070e84611572565b60405160200161071e9190612867565b6040516020818303038152906040526116d2565b9050600a805490508161074591906128b8565b9050600a818154811061075b5761075a6128e9565b5b906000526020600020018054610770906125f8565b80601f016020809104026020016040519081016040528092919081815260200182805461079c906125f8565b80156107e95780601f106107be576101008083540402835291602001916107e9565b820191906000526020600020905b8154815290600101906020018083116107cc57829003601f168201915b5050505050915050919050565b61081183838360405180602001604052806000815250610c16565b505050565b6060600061084a61082684611572565b6040516020016108369190612964565b6040516020818303038152906040526116d2565b9050600d805490508161085d91906128b8565b9050600d8181548110610873576108726128e9565b5b906000526020600020018054610888906125f8565b80601f01602080910402602001604051908101604052809291908181526020018280546108b4906125f8565b80156109015780601f106108d657610100808354040283529160200191610901565b820191906000526020600020905b8154815290600101906020018083116108e457829003601f168201915b5050505050915050919050565b6000806002600084815260200190815260200160002060009054906101000a900473ffffffffffffffffffffffffffffffffffffffff169050600073ffffffffffffffffffffffffffffffffffffffff168173ffffffffffffffffffffffffffffffffffffffff16036109b6576040517f08c379a00000000000000000000000000000000000000000000000000000000081526004016109ad906129d2565b60405180910390fd5b80915050919050565b60008073ffffffffffffffffffffffffffffffffffffffff168273ffffffffffffffffffffffffffffffffffffffff1603610a2f576040517f08c379a0000000000000000000000000000000000000000000000000000000008152600401610a2690612a64565b60405180910390fd5b600360008373ffffffffffffffffffffffffffffffffffffffff1673ffffffffffffffffffffffffffffffffffffffff168152602001908152602001600020549050919050565b606060018054610a85906125f8565b80601f0160208091040260200160405190810160405280929190818152602001828054610ab1906125f8565b8015610afe5780601f10610ad357610100808354040283529160200191610afe565b820191906000526020600020905b815481529060010190602001808311610ae157829003601f168201915b5050505050905090565b610b1a610b136111b6565b8383611705565b5050565b60606000610b52610b2e84611572565b604051602001610b3e9190612ad0565b6040516020818303038152906040526116d2565b9050600b8054905081610b6591906128b8565b9050600b8181548110610b7b57610b7a6128e9565b5b906000526020600020018054610b90906125f8565b80601f0160208091040260200160405190810160405280929190818152602001828054610bbc906125f8565b8015610c095780601f10610bde57610100808354040283529160200191610c09565b820191906000526020600020905b815481529060010190602001808311610bec57829003601f168201915b5050505050915050919050565b610c27610c216111b6565b83611277565b610c66576040517f08c379a0000000000000000000000000000000000000000000000000000000008152600401610c5d906127bf565b60405180910390fd5b610c7284848484611871565b50505050565b60606000610cac610c8884611572565b604051602001610c989190612b3e565b6040516020818303038152906040526116d2565b9050600c8054905081610cbf91906128b8565b9050600c8181548110610cd557610cd46128e9565b5b906000526020600020018054610cea906125f8565b80601f0160208091040260200160405190810160405280929190818152602001828054610d16906125f8565b8015610d635780601f10610d3857610100808354040283529160200191610d63565b820191906000526020600020905b815481529060010190602001808311610d4657829003601f168201915b5050505050915050919050565b6060610d7b8261116b565b6000600660008481526020019081526020016000208054610d9b906125f8565b80601f0160208091040260200160405190810160405280929190818152602001828054610dc7906125f8565b8015610e145780601f10610de957610100808354040283529160200191610e14565b820191906000526020600020905b815481529060010190602001808311610df757829003601f168201915b505050505090506000610e256118cd565b90506000815103610e3a578192505050610e7d565b600082511115610e6f578082604051602001610e57929190612b60565b60405160208183030381529060405292505050610e7d565b610e78846118e4565b925050505b919050565b6000610e8e600761194c565b90506000610e9b826106fe565b90506000610ea883610b1e565b90506000610eb584610c78565b90506000838383604051602001610ece93929190612b84565b60405160208183030381529060405290506000610eea86610816565b90506000600882600985604051602001610f079493929190612c99565b60405160208183030381529060405290506000610f4c84610f278461195a565b604051602001610f38929190612e12565b60405160208183030381529060405261195a565b9050600081604051602001610f619190612ea3565b6040516020818303038152906040529050610f7c338a611af1565b610f868982611b0f565b610f906007611b7c565b7febb98688741ffa4c7589bf325de30cf7becb63de567842e1ccdb6cb949fdc82c338a604051610fc1929190612ec5565b60405180910390a1505050505050505050565b6000600560008473ffffffffffffffffffffffffffffffffffffffff1673ffffffffffffffffffffffffffffffffffffffff16815260200190815260200160002060008373ffffffffffffffffffffffffffffffffffffffff1673ffffffffffffffffffffffffffffffffffffffff16815260200190815260200160002060009054906101000a900460ff16905092915050565b6110fe8160405160240161107c919061216e565b6040516020818303038152906040527f41304fac000000000000000000000000000000000000000000000000000000007bffffffffffffffffffffffffffffffffffffffffffffffffffffffff19166020820180517bffffffffffffffffffffffffffffffffffffffffffffffffffffffff8381831617835250505050611b92565b50565b60007f01ffc9a7000000000000000000000000000000000000000000000000000000007bffffffffffffffffffffffffffffffffffffffffffffffffffffffff1916827bffffffffffffffffffffffffffffffffffffffffffffffffffffffff1916149050919050565b61117481611bbb565b6111b3576040517f08c379a00000000000000000000000000000000000000000000000000000000081526004016111aa906129d2565b60405180910390fd5b50565b600033905090565b816004600083815260200190815260200160002060006101000a81548173ffffffffffffffffffffffffffffffffffffffff021916908373ffffffffffffffffffffffffffffffffffffffff160217905550808273ffffffffffffffffffffffffffffffffffffffff166112318361090e565b73ffffffffffffffffffffffffffffffffffffffff167f8c5be1e5ebec7d5bd14f71427d1e84f3dd0314c0f7b2291e5b200ac8c7c3b92560405160405180910390a45050565b6000806112838361090e565b90508073ffffffffffffffffffffffffffffffffffffffff168473ffffffffffffffffffffffffffffffffffffffff1614806112c557506112c48185610fd4565b5b8061130357508373ffffffffffffffffffffffffffffffffffffffff166112eb84610541565b73ffffffffffffffffffffffffffffffffffffffff16145b91505092915050565b8273ffffffffffffffffffffffffffffffffffffffff1661132c8261090e565b73ffffffffffffffffffffffffffffffffffffffff1614611382576040517f08c379a000000000000000000000000000000000000000000000000000000000815260040161137990612f60565b60405180910390fd5b600073ffffffffffffffffffffffffffffffffffffffff168273ffffffffffffffffffffffffffffffffffffffff16036113f1576040517f08c379a00000000000000000000000000000000000000000000000000000000081526004016113e890612ff2565b60405180910390fd5b6113fc838383611c27565b6114076000826111be565b6001600360008573ffffffffffffffffffffffffffffffffffffffff1673ffffffffffffffffffffffffffffffffffffffff16815260200190815260200160002060008282546114579190613041565b925050819055506001600360008473ffffffffffffffffffffffffffffffffffffffff1673ffffffffffffffffffffffffffffffffffffffff16815260200190815260200160002060008282546114ae9190613075565b92505081905550816002600083815260200190815260200160002060006101000a81548173ffffffffffffffffffffffffffffffffffffffff021916908373ffffffffffffffffffffffffffffffffffffffff160217905550808273ffffffffffffffffffffffffffffffffffffffff168473ffffffffffffffffffffffffffffffffffffffff167fddf252ad1be2c89b69c2b068fc378daa952ba7f163c4a11628f55a4df523b3ef60405160405180910390a461156d838383611c2c565b505050565b6060600082036115b9576040518060400160405280600181526020017f300000000000000000000000000000000000000000000000000000000000000081525090506116cd565b600082905060005b600082146115eb5780806115d4906130a9565b915050600a826115e491906130f1565b91506115c1565b60008167ffffffffffffffff811115611607576116066123db565b5b6040519080825280601f01601f1916602001820160405280156116395781602001600182028036833780820191505090505b5090505b600085146116c6576001826116529190613041565b9150600a8561166191906128b8565b603061166d9190613075565b60f81b818381518110611683576116826128e9565b5b60200101907effffffffffffffffffffffffffffffffffffffffffffffffffffffffffffff1916908160001a905350600a856116bf91906130f1565b945061163d565b8093505050505b919050565b6000816040516020016116e59190613122565b6040516020818303038152906040528051906020012060001c9050919050565b8173ffffffffffffffffffffffffffffffffffffffff168373ffffffffffffffffffffffffffffffffffffffff1603611773576040517f08c379a000000000000000000000000000000000000000000000000000000000815260040161176a90613185565b60405180910390fd5b80600560008573ffffffffffffffffffffffffffffffffffffffff1673ffffffffffffffffffffffffffffffffffffffff16815260200190815260200160002060008473ffffffffffffffffffffffffffffffffffffffff1673ffffffffffffffffffffffffffffffffffffffff16815260200190815260200160002060006101000a81548160ff0219169083151502179055508173ffffffffffffffffffffffffffffffffffffffff168373ffffffffffffffffffffffffffffffffffffffff167f17307eab39ab6107e8899845ad3d59bd9653f200f220920489ca2b5937696c318360405161186491906120c3565b60405180910390a3505050565b61187c84848461130c565b61188884848484611c31565b6118c7576040517f08c379a00000000000000000000000000000000000000000000000000000000081526004016118be90613217565b60405180910390fd5b50505050565b606060405180602001604052806000815250905090565b60606118ef8261116b565b60006118f96118cd565b905060008151116119195760405180602001604052806000815250611944565b8061192384611572565b604051602001611934929190612b60565b6040516020818303038152906040525b915050919050565b600081600001549050919050565b6060600082519050600081036119825760405180602001604052806000815250915050611aec565b600060036002836119939190613075565b61199d91906130f1565b60046119a99190613237565b905060006020826119ba9190613075565b67ffffffffffffffff8111156119d3576119d26123db565b5b6040519080825280601f01601f191660200182016040528015611a055781602001600182028036833780820191505090505b5090506000604051806060016040528060408152602001613730604091399050600181016020830160005b86811015611aa95760038101905062ffffff818a015116603f8160121c168401518060081b905060ff603f83600c1c1686015116810190508060081b905060ff603f8360061c1686015116810190508060081b905060ff603f831686015116810190508060e01b90508084526004840193505050611a30565b506003860660018114611ac35760028114611ad357611ade565b613d3d60f01b6002830352611ade565b603d60f81b60018303525b508484525050819450505050505b919050565b611b0b828260405180602001604052806000815250611db8565b5050565b611b1882611bbb565b611b57576040517f08c379a0000000000000000000000000000000000000000000000000000000008152600401611b4e906132eb565b60405180910390fd5b80600660008481526020019081526020016000209081611b7791906134a2565b505050565b6001816000016000828254019250508190555050565b60008151905060006a636f6e736f6c652e6c6f679050602083016000808483855afa5050505050565b60008073ffffffffffffffffffffffffffffffffffffffff166002600084815260200190815260200160002060009054906101000a900473ffffffffffffffffffffffffffffffffffffffff1673ffffffffffffffffffffffffffffffffffffffff1614159050919050565b505050565b505050565b6000611c528473ffffffffffffffffffffffffffffffffffffffff16611e13565b15611dab578373ffffffffffffffffffffffffffffffffffffffff1663150b7a02611c7b6111b6565b8786866040518563ffffffff1660e01b8152600401611c9d94939291906135c9565b6020604051808303816000875af1925050508015611cd957506040513d601f19601f82011682018060405250810190611cd6919061362a565b60015b611d5b573d8060008114611d09576040519150601f19603f3d011682016040523d82523d6000602084013e611d0e565b606091505b506000815103611d53576040517f08c379a0000000000000000000000000000000000000000000000000000000008152600401611d4a90613217565b60405180910390fd5b805181602001fd5b63150b7a0260e01b7bffffffffffffffffffffffffffffffffffffffffffffffffffffffff1916817bffffffffffffffffffffffffffffffffffffffffffffffffffffffff191614915050611db0565b600190505b949350505050565b611dc28383611e36565b611dcf6000848484611c31565b611e0e576040517f08c379a0000000000000000000000000000000000000000000000000000000008152600401611e0590613217565b60405180910390fd5b505050565b6000808273ffffffffffffffffffffffffffffffffffffffff163b119050919050565b600073ffffffffffffffffffffffffffffffffffffffff168273ffffffffffffffffffffffffffffffffffffffff1603611ea5576040517f08c379a0000000000000000000000000000000000000000000000000000000008152600401611e9c906136a3565b60405180910390fd5b611eae81611bbb565b15611eee576040517f08c379a0000000000000000000000000000000000000000000000000000000008152600401611ee59061370f565b60405180910390fd5b611efa60008383611c27565b6001600360008473ffffffffffffffffffffffffffffffffffffffff1673ffffffffffffffffffffffffffffffffffffffff1681526020019081526020016000206000828254611f4a9190613075565b92505081905550816002600083815260200190815260200160002060006101000a81548173ffffffffffffffffffffffffffffffffffffffff021916908373ffffffffffffffffffffffffffffffffffffffff160217905550808273ffffffffffffffffffffffffffffffffffffffff16600073ffffffffffffffffffffffffffffffffffffffff167fddf252ad1be2c89b69c2b068fc378daa952ba7f163c4a11628f55a4df523b3ef60405160405180910390a461200b60008383611c2c565b5050565b6000604051905090565b600080fd5b600080fd5b60007fffffffff0000000000000000000000000000000000000000000000000000000082169050919050565b61205881612023565b811461206357600080fd5b50565b6000813590506120758161204f565b92915050565b60006020828403121561209157612090612019565b5b600061209f84828501612066565b91505092915050565b60008115159050919050565b6120bd816120a8565b82525050565b60006020820190506120d860008301846120b4565b92915050565b600081519050919050565b600082825260208201905092915050565b60005b838110156121185780820151818401526020810190506120fd565b60008484015250505050565b6000601f19601f8301169050919050565b6000612140826120de565b61214a81856120e9565b935061215a8185602086016120fa565b61216381612124565b840191505092915050565b600060208201905081810360008301526121888184612135565b905092915050565b6000819050919050565b6121a381612190565b81146121ae57600080fd5b50565b6000813590506121c08161219a565b92915050565b6000602082840312156121dc576121db612019565b5b60006121ea848285016121b1565b91505092915050565b600073ffffffffffffffffffffffffffffffffffffffff82169050919050565b600061221e826121f3565b9050919050565b61222e81612213565b82525050565b60006020820190506122496000830184612225565b92915050565b61225881612213565b811461226357600080fd5b50565b6000813590506122758161224f565b92915050565b6000806040838503121561229257612291612019565b5b60006122a085828601612266565b92505060206122b1858286016121b1565b9150509250929050565b6000806000606084860312156122d4576122d3612019565b5b60006122e286828701612266565b93505060206122f386828701612266565b9250506040612304868287016121b1565b9150509250925092565b60006020828403121561232457612323612019565b5b600061233284828501612266565b91505092915050565b61234481612190565b82525050565b600060208201905061235f600083018461233b565b92915050565b61236e816120a8565b811461237957600080fd5b50565b60008135905061238b81612365565b92915050565b600080604083850312156123a8576123a7612019565b5b60006123b685828601612266565b92505060206123c78582860161237c565b9150509250929050565b600080fd5b600080fd5b7f4e487b7100000000000000000000000000000000000000000000000000000000600052604160045260246000fd5b61241382612124565b810181811067ffffffffffffffff82111715612432576124316123db565b5b80604052505050565b600061244561200f565b9050612451828261240a565b919050565b600067ffffffffffffffff821115612471576124706123db565b5b61247a82612124565b9050602081019050919050565b82818337600083830152505050565b60006124a96124a484612456565b61243b565b9050828152602081018484840111156124c5576124c46123d6565b5b6124d0848285612487565b509392505050565b600082601f8301126124ed576124ec6123d1565b5b81356124fd848260208601612496565b91505092915050565b600080600080608085870312156125205761251f612019565b5b600061252e87828801612266565b945050602061253f87828801612266565b9350506040612550878288016121b1565b925050606085013567ffffffffffffffff8111156125715761257061201e565b5b61257d878288016124d8565b91505092959194509250565b600080604083850312156125a05761259f612019565b5b60006125ae85828601612266565b92505060206125bf85828601612266565b9150509250929050565b7f4e487b7100000000000000000000000000000000000000000000000000000000600052602260045260246000fd5b6000600282049050600182168061261057607f821691505b602082108103612623576126226125c9565b5b50919050565b7f4552433732313a20617070726f76616c20746f2063757272656e74206f776e6560008201527f7200000000000000000000000000000000000000000000000000000000000000602082015250565b60006126856021836120e9565b915061269082612629565b604082019050919050565b600060208201905081810360008301526126b481612678565b9050919050565b7f4552433732313a20617070726f76652063616c6c6572206973206e6f7420746f60008201527f6b656e206f776e6572206e6f7220617070726f76656420666f7220616c6c0000602082015250565b6000612717603e836120e9565b9150612722826126bb565b604082019050919050565b600060208201905081810360008301526127468161270a565b9050919050565b7f4552433732313a2063616c6c6572206973206e6f7420746f6b656e206f776e6560008201527f72206e6f7220617070726f766564000000000000000000000000000000000000602082015250565b60006127a9602e836120e9565b91506127b48261274d565b604082019050919050565b600060208201905081810360008301526127d88161279c565b9050919050565b600081905092915050565b7f46495253545f574f524400000000000000000000000000000000000000000000600082015250565b6000612820600a836127df565b915061282b826127ea565b600a82019050919050565b6000612841826120de565b61284b81856127df565b935061285b8185602086016120fa565b80840191505092915050565b600061287282612813565b915061287e8284612836565b915081905092915050565b7f4e487b7100000000000000000000000000000000000000000000000000000000600052601260045260246000fd5b60006128c382612190565b91506128ce83612190565b9250826128de576128dd612889565b5b828206905092915050565b7f4e487b7100000000000000000000000000000000000000000000000000000000600052603260045260246000fd5b7f434f4c4f52000000000000000000000000000000000000000000000000000000600082015250565b600061294e6005836127df565b915061295982612918565b600582019050919050565b600061296f82612941565b915061297b8284612836565b915081905092915050565b7f4552433732313a20696e76616c696420746f6b656e2049440000000000000000600082015250565b60006129bc6018836120e9565b91506129c782612986565b602082019050919050565b600060208201905081810360008301526129eb816129af565b9050919050565b7f4552433732313a2061646472657373207a65726f206973206e6f74206120766160008201527f6c6964206f776e65720000000000000000000000000000000000000000000000602082015250565b6000612a4e6029836120e9565b9150612a59826129f2565b604082019050919050565b60006020820190508181036000830152612a7d81612a41565b9050919050565b7f5345434f4e445f574f5244000000000000000000000000000000000000000000600082015250565b6000612aba600b836127df565b9150612ac582612a84565b600b82019050919050565b6000612adb82612aad565b9150612ae78284612836565b915081905092915050565b7f54484952445f574f524400000000000000000000000000000000000000000000600082015250565b6000612b28600a836127df565b9150612b3382612af2565b600a82019050919050565b6000612b4982612b1b565b9150612b558284612836565b915081905092915050565b6000612b6c8285612836565b9150612b788284612836565b91508190509392505050565b6000612b908286612836565b9150612b9c8285612836565b9150612ba88284612836565b9150819050949350505050565b60008190508160005260206000209050919050565b60008154612bd7816125f8565b612be181866127df565b94506001821660008114612bfc5760018114612c1157612c44565b60ff1983168652811515820286019350612c44565b612c1a85612bb5565b60005b83811015612c3c57815481890152600182019150602081019050612c1d565b838801955050505b50505092915050565b7f3c2f746578743e3c2f7376673e00000000000000000000000000000000000000600082015250565b6000612c83600d836127df565b9150612c8e82612c4d565b600d82019050919050565b6000612ca58287612bca565b9150612cb18286612836565b9150612cbd8285612bca565b9150612cc98284612836565b9150612cd482612c76565b915081905095945050505050565b7f7b226e616d65223a202200000000000000000000000000000000000000000000600082015250565b6000612d18600a836127df565b9150612d2382612ce2565b600a82019050919050565b7f222c20226465736372697074696f6e223a20224e6f6e20686f206e69656e746560008201527f206469206d65676c696f2064612066617265203a29222c2022696d616765223a60208201527f2022646174613a696d6167652f7376672b786d6c3b6261736536342c00000000604082015250565b6000612db0605c836127df565b9150612dbb82612d2e565b605c82019050919050565b7f227d000000000000000000000000000000000000000000000000000000000000600082015250565b6000612dfc6002836127df565b9150612e0782612dc6565b600282019050919050565b6000612e1d82612d0b565b9150612e298285612836565b9150612e3482612da3565b9150612e408284612836565b9150612e4b82612def565b91508190509392505050565b7f646174613a6170706c69636174696f6e2f6a736f6e3b6261736536342c000000600082015250565b6000612e8d601d836127df565b9150612e9882612e57565b601d82019050919050565b6000612eae82612e80565b9150612eba8284612836565b915081905092915050565b6000604082019050612eda6000830185612225565b612ee7602083018461233b565b9392505050565b7f4552433732313a207472616e736665722066726f6d20696e636f72726563742060008201527f6f776e6572000000000000000000000000000000000000000000000000000000602082015250565b6000612f4a6025836120e9565b9150612f5582612eee565b604082019050919050565b60006020820190508181036000830152612f7981612f3d565b9050919050565b7f4552433732313a207472616e7366657220746f20746865207a65726f2061646460008201527f7265737300000000000000000000000000000000000000000000000000000000602082015250565b6000612fdc6024836120e9565b9150612fe782612f80565b604082019050919050565b6000602082019050818103600083015261300b81612fcf565b9050919050565b7f4e487b7100000000000000000000000000000000000000000000000000000000600052601160045260246000fd5b600061304c82612190565b915061305783612190565b925082820390508181111561306f5761306e613012565b5b92915050565b600061308082612190565b915061308b83612190565b92508282019050808211156130a3576130a2613012565b5b92915050565b60006130b482612190565b91507fffffffffffffffffffffffffffffffffffffffffffffffffffffffffffffffff82036130e6576130e5613012565b5b600182019050919050565b60006130fc82612190565b915061310783612190565b92508261311757613116612889565b5b828204905092915050565b600061312e8284612836565b915081905092915050565b7f4552433732313a20617070726f766520746f2063616c6c657200000000000000600082015250565b600061316f6019836120e9565b915061317a82613139565b602082019050919050565b6000602082019050818103600083015261319e81613162565b9050919050565b7f4552433732313a207472616e7366657220746f206e6f6e20455243373231526560008201527f63656976657220696d706c656d656e7465720000000000000000000000000000602082015250565b60006132016032836120e9565b915061320c826131a5565b604082019050919050565b60006020820190508181036000830152613230816131f4565b9050919050565b600061324282612190565b915061324d83612190565b925082820261325b81612190565b9150828204841483151761327257613271613012565b5b5092915050565b7f45524337323155524953746f726167653a2055524920736574206f66206e6f6e60008201527f6578697374656e7420746f6b656e000000000000000000000000000000000000602082015250565b60006132d5602e836120e9565b91506132e082613279565b604082019050919050565b60006020820190508181036000830152613304816132c8565b9050919050565b60006020601f8301049050919050565b600082821b905092915050565b6000600883026133587fffffffffffffffffffffffffffffffffffffffffffffffffffffffffffffffff8261331b565b613362868361331b565b95508019841693508086168417925050509392505050565b6000819050919050565b600061339f61339a61339584612190565b61337a565b612190565b9050919050565b6000819050919050565b6133b983613384565b6133cd6133c5826133a6565b848454613328565b825550505050565b600090565b6133e26133d5565b6133ed8184846133b0565b505050565b5b81811015613411576134066000826133da565b6001810190506133f3565b5050565b601f8211156134565761342781612bb5565b6134308461330b565b8101602085101561343f578190505b61345361344b8561330b565b8301826133f2565b50505b505050565b600082821c905092915050565b60006134796000198460080261345b565b1980831691505092915050565b60006134928383613468565b9150826002028217905092915050565b6134ab826120de565b67ffffffffffffffff8111156134c4576134c36123db565b5b6134ce82546125f8565b6134d9828285613415565b600060209050601f83116001811461350c57600084156134fa578287015190505b6135048582613486565b86555061356c565b601f19841661351a86612bb5565b60005b828110156135425784890151825560018201915060208501945060208101905061351d565b8683101561355f578489015161355b601f891682613468565b8355505b6001600288020188555050505b505050505050565b600081519050919050565b600082825260208201905092915050565b600061359b82613574565b6135a5818561357f565b93506135b58185602086016120fa565b6135be81612124565b840191505092915050565b60006080820190506135de6000830187612225565b6135eb6020830186612225565b6135f8604083018561233b565b818103606083015261360a8184613590565b905095945050505050565b6000815190506136248161204f565b92915050565b6000602082840312156136405761363f612019565b5b600061364e84828501613615565b91505092915050565b7f4552433732313a206d696e7420746f20746865207a65726f2061646472657373600082015250565b600061368d6020836120e9565b915061369882613657565b602082019050919050565b600060208201905081810360008301526136bc81613680565b9050919050565b7f4552433732313a20746f6b656e20616c7265616479206d696e74656400000000600082015250565b60006136f9601c836120e9565b9150613704826136c3565b602082019050919050565b60006020820190508181036000830152613728816136ec565b905091905056fe4142434445464748494a4b4c4d4e4f505152535455565758595a6162636465666768696a6b6c6d6e6f707172737475767778797a303132333435363738392b2fa264697066735822122063675136ca998aca7e99b6cc6c72d6e1d6ccfdffdb5897b9be530c461da1706364736f6c634300081100333c73766720786d6c6e733d27687474703a2f2f7777772e77332e6f72672f323030302f73766727207072657365727665417370656374526174696f3d27784d696e594d696e206d656574272076696577426f783d273020302033353020333530273e3c7374796c653e2e62617365207b2066696c6c3a2077686974653b20666f6e742d66616d696c793a2073657269663b20666f6e742d73697a653a20323470783b207d3c2f7374796c653e3c726563742077696474683d273130302527206865696768743d2731303025272066696c6c3d27272f3e3c7465787420783d273530252720793d273530252720636c6173733d27626173652720646f6d696e616e742d626173656c696e653d276d6964646c652720746578742d616e63686f723d276d6964646c65273e",
  "linkReferences": {},
  "deployedLinkReferences": {}
}